:0400000007EF00F016
:0A0008004D829AED08F05BEF0AF05C
:0708000000040302010000E7
:10080800000E0001816F000E826F000E836F000ED4
:10081800846F000E856F000E866F000E876F000EC6
:10082800886F000E8C6F000E8B6F8CBF06D08C51BA
:100838003DE1050E8B5DD8B039D08BC020F08CC05F
:1008480021F09EEC06F020C089F021C08AF0010E4C
:1008580000018B251A6E000E8C211B6E89C01CF0BE
:100868008AC01DF06EEC0AF01AC07DF01BC07EF045
:100878007DC01AF07EC01BF0000E1D6E640E1C6E4B
:100888006EEC0AF01A50000181271B508223000EDB
:100898008323000E8423895185278A518623000EDD
:1008A8008723000E88238B4B8C2BBFD781C013F076
:1008B80082C014F083C015F084C016F085C017F00C
:1008C80086C018F087C019F088C01AF078EC09F0D3
:1008D80013C07BF014C07CF099C09DF09AC09EF0C4
:1008E8007BC03AF07CC03BF03A1E3B1E3A4A3B2A9A
:1008F8002C0E3A240001996F010E3B209A6F9951F2
:100908009B279A519C236FC022F070C023F071C0BE
:1009180024F099C01BF09AC01CF00CEC0AF01BC024
:100928001FF01CC020F01DC021F0C9EC07F01FC04B
:100938002EF020C02FF021C030F04DEC07F02EC073
:100948007FF02FC080F072C022F073C023F074C013
:1009580024F09BC01BF09CC01CF00CEC0AF01BC0E0
:100968001FF01CC020F01DC021F0C9EC07F01FC00B
:1009780069F020C06AF021C06BF07FC01BF080C016
:100988001CF00CEC0AF01BC066F01CC067F01DC020
:1009980068F00FEC05F066C078F067C079F068C0C1
:1009A8007AF075C022F076C023F077C024F09DC09D
:1009B8003AF09EC03BF03A1E3B1E3A4A3B2A0001E1
:1009C80099513A241B6E9A513B201C6E0CEC0AF08C
:1009D8001BC01FF01CC020F01DC021F0C9EC07F09F
:1009E8001FC069F020C06AF021C06BF078C066F0C3
:1009F80079C067F07AC068F00FEC05F066C02EF099
:100A080067C02FF068C030F04DEC07F02EC06FF0D3
:100A18002FC070F0120068C037F0386A396A0001D8
:100A28006735373601E3388037506E6F6BC037F063
:100A3800386A396A6A35373601E3388037506D6F5E
:100A48006E51D8B40BD06D516E5DD8B00ED06E51CA
:100A580000086D25376E180E376407D069C066F038
:100A68006AC067F06BC068F012006D51D8B40BD043
:100A78006E516D5DD8B00ED06D5100086E25376E81
:100A8800180E376407D066C066F067C067F068C0A4
:100A980068F01200060E6C6F68BF6C8F6BBF6C8DB0
:100AA800678FFF0E6617FF0E6717000E68176A8FAD
:100AB800FF0E6917FF0E6A17000E6B176D516E5DFA
:100AC800D8B01BD0D89069376A376B376D076E512D
:100AD8006D19D8B40DD06C076CC037F0070E3716F7
:100AE800D8B406D0EFD7D8906833673366336E2B07
:100AF8006D516E19D8B41FD0F6D76E516D5DD8B050
:100B08001AD0D8906637673768376E076E516D19F7
:100B1800D8B40DD06C076CC037F0070E3716D8B4B0
:100B280006D0EFD7D8906B336A3369336D2B6D518C
:100B38006E19D8A4F7D76CAF0CD0FF0E661BFF0E4A
:100B4800671BFF0E681B010E6627000E6723000E49
:100B580068236CAD0CD0FF0E691BFF0E6A1BFF0EDD
:100B68006B1B010E6927000E6A23000E6B23000E13
:100B78006C6F6651692767516A2368516B236BAFA5
:100B88000ED0FF0E691BFF0E6A1BFF0E6B1B010EBA
:100B98006927000E6A23000E6B23010E6C6F69C073
:100BA80013F06AC014F06BC015F06EC016F06CC07C
:100BB80017F043EC08F013C066F014C067F015C0D6
:100BC80068F012001CBE05D01C5006E11B04D8B00A
:100BD80003D01F6A1F2A01D01F6A1F3A1F461F46EB
:100BE8008B501F18BF0B1F188B6E1EBE05D01E50D2
:100BF80006E11D04D8B003D01F6A1F2A01D01F6A5E
:100C08008B501F18FE0B1F188B6E1CAE0ED01BC00E
:100C18001FF01CC020F01F1E201E1F4A202AE80EAD
:100C28001F241B6E030E20201C6E1EAE0ED01DC08E
:100C38001FF01EC020F01F1E201E1F4A202AE80E8B
:100C48001F241D6E030E20201E6E1CBE0AD0E90E46
:100C58001B5C030E1C58D8A004D0030E1C6EE80EB3
:100C68001B6E1EBE0AD0E90E1D5C030E1E58D8A0CE
:100C780004D0030E1E6EE80E1D6E1BC01FF01CC0B4
:100C880020F00A0ED8901F362036E82EFBD71FC05A
:100C980013F020C014F0030E166EE80E156E36EC35
:100CA80009F013C01BF014C01CF01DC01FF01EC0BB
:100CB80020F00A0ED8901F362036E82EFBD71FC02A
:100CC80013F020C014F0030E166EE80E156E36EC05
:100CD80009F013C01DF014C01EF01BC01FF0030E56
:100CE8001F161F3ABA501F18CF0B1F18BA6E1DC017
:100CF8001FF0030E1F161F3ABD501F18CF0B1F18E9
:100D0800BD6E1BC01FF01CC020F0203420321F32E3
:100D1800203420321F321F50BB6E1DC01FF01EC072
:100D280020F0203420321F32203420321F321F504E
:100D3800BE6E12002050B9EC09F013C02CF014C09C
:100D48002DF0D8902034D96E2134DA6E3C0ED92695
:100D5800000EDA22DE502C5CDE502D58D8A00ED0C2
:100D6800D8902034D96E2134DA6E3C0ED926000E84
:100D7800DA22DECF28F0DDCF29F004D02CC028F00D
:100D88002DC029F0D8902034D96E2134DA6E3C0E6B
:100D9800D926000EDA2228C0DEFF29C0DDFFD89050
:100DA8002034D96E2134DA6E8F0ED926000EDA225D
:100DB8002C50DE5C2D50DE58D8A00ED0D8902034B0
:100DC800D96E2134DA6E8F0ED926000EDA22DECFE4
:100DD8002AF0DDCF2BF004D02CC02AF02DC02BF048
:100DE800D8902034D96E2134DA6E8F0ED926000EB1
:100DF800DA222AC0DEFF2BC0DDFFD8902034D96E5E
:100E08002134DA6E3C0ED926000EDA22DECF22F02B
:100E1800DDCF23F0221E231E224A232A2C5022240F
:100E28001A6E2D5023201B6ED8902034D96E213491
:100E3800DA6E8F0ED926000EDA22DECF24F0DDCF4F
:100E480025F0D8902034D96E2134DA6E3C0ED9269C
:100E5800000EDA22DECF26F0DDCF27F0261E271E71
:100E6800264A272A24502624156E25502720166E38
:100E7800030E146EE80E136EE3EC09F013C01CF0B9
:100E880014C01DF06EEC0AF01AC02CF01BC02DF037
:100E9800120030C032F0336A346A2F34323601E33C
:100EA800338032500001656F6551D8A409D0000E17
:100EB8002E6E000E2F6E000E306E000E316E120078
:100EC800170E326E2EC033F02FC034F030C035F01C
:100ED8003228366E04D0D890353234323332362E3A
:100EE800FAD733500001606F2F8EFF0E2E16FF0EBB
:100EF8002F16000E30162E50616F2F50626F305033
:100F0800636F646B8E0E655F65AF16D06551800A9E
:100F18008F0FD8B009D0000E2E6E000E2F6E000E67
:100F2800306E000E316E1200D89064336333623332
:100F38006133653FF9D715D0170E65650FD0000EE0
:100F48002E6E000E2F6E000E306E000E316E1200E7
:100F5800D890613762376337643765076551D8A41D
:100F6800F7D76051D8B408D0641F631F621F616D42
:100F7800000E62236323642361C02EF062C02FF049
:100F880063C030F064C031F0120021C025F0266A39
:100F9800276A2034253601E326802550286E2850FC
:100FA800D8A407D0000E1F6E000E206E000E216E12
:100FB800120024C025F0266A276A2334253601E367
:100FC800268025502D6E2D50D8A407D0000E1F6EF8
:100FD800000E206E000E216E12002D507B0F282669
:100FE80021C02DF024502D1A800E2D16208E238E10
:100FF800FF0E2216FF0E2316000E2416000E296E71
:10100800000E2A6E000E2B6E070E2C6E1FA006D047
:101018002250292623502A2224502B22D8902132CC
:1010280020321F32D8902236233624362C2EEED783
:10103800090E2C6E1FA006D02250292623502A22E2
:1010480024502B22D890213220321F32D8902B32B4
:101058002A3229322C2EEED729C013F02AC014F0D8
:101068002BC015F028C016F02DC017F043EC08F07F
:1010780013C01FF014C020F015C021F01200165044
:10108800D8B405D0135014101510D8A40CD0000EE5
:10109800136E000E146E000E156E1200162AD890EC
:1010A800153214321332000E1314186E000E141475
:1010B800196EFE0E15141A6E185019101A10D8B49D
:1010C8000CD0ECD7162A010E1326000E1422000E9F
:1010D8001522D890153214321332000E1314186EDC
:1010E800000E1414196EFF0E15141A6E18501910EC
:1010F8001A10D8B406D0E6D71606D8901336143688
:10110800153614BE03D0020E1660F6D716A0149E2C
:10111800D8901632165015121750D8A4158E13C031
:1011280013F014C014F015C015F012000600FACF21
:1011380001F0FBCF02F0E9CF03F0EACF04F0E1CFF2
:1011480005F0E2CF06F0D9CF07F0DACF08F0F3CFF9
:1011580009F0F4CF0AF0F6CF0BF0F7CF0CF0F8CF88
:101168000DF0F5CF0EF04DC00FF04EC010F04FC08F
:1011780011F050C012F043EC0AF0C9EC0AF012C0AA
:1011880050F011C04FF010C04EF00FC04DF00EC01F
:10119800F5FF0DC0F8FF0CC0F7FF0BC0F6FF0AC043
:1011A800F4FF09C0F3FF08C0DAFF07C0D9FF06C083
:1011B800E2FF05C0E1FF04C0EAFF03C0E9FF02C087
:1011C800FBFF01C0FAFF4D92110044D0000E1C6EC7
:1011D800000E1B6E000E1E6E000E1D6EE6EC05F076
:1011E800000E146E000E156E010E8EEC0AF0120041
:1011F800000E00016F6F800E706F3F0E716F000E52
:10120800726F000E736F000E746F000E756F000E14
:10121800766F000E776F04EC04F06FC08DF070C02D
:101228008EF000018EAF0BD08DC01BF08EC01CF06D
:10123800000E1E6E000E1D6EE6EC05F01200000E8C
:101248001C6E000E1B6E8DC01DF08EC01EF0E6ECED
:1012580005F012004C50000AD8B4B8D7010AD8A437
:101268001200C6D7000E186E16AE06D0156C161EE4
:10127800D8B0162A010E186E14AE06D0136C141EC0
:10128800D8B0142A010E181A000E1A6E000E196E24
:1012980015501610D8B41CD0010E176E04D0D89073
:1012A80015361636172A16AEFAD7D89019361A36C2
:1012B8001550135C16501458D8A005D01550135E5D
:1012C8001650145A1980D89016321532172EEDD7A9
:1012D8001850D8B404D0196C1A1ED8B01A2A19C0DC
:1012E80013F01AC014F01200000E1B6E000E1C6ED4
:1012F800000E1D6E000E1E6E1750181019101A10D1
:10130800D8B42AD0010E1F6E06D0D89017361836DA
:1013180019361A361F2A1AAEF8D7D8901B361C363B
:101328001D361E361750135C18501458195015588E
:101338001A501658D8A009D01750135E1850145ACE
:101348001950155A1A50165A1B80D8901A32193249
:10135800183217321F2EE1D71BC013F01CC014F02F
:101368001DC015F01EC016F01200176E040E17648B
:1013780005D0000E146E000E136E12001750010DEA
:10138800010EF324F66E080EF420F76E0800F5CF70
:1013980015F015461546C2501518C30B1518C26E20
:1013A800C280C282C2B2FED7C290C450166E156AFD
:1013B800C3501524136E000E1620146E1200000E72
:1013C800196E000E186E15501610D8B41CD0010EE8
:1013D800176E04D0D89015361636172A16AEFAD7D7
:1013E800D890183619361550135C16501458D8A0D2
:1013F80005D01550135E1650145A1880D89016321E
:101408001532172EEDD718C013F019C014F01200BA
:10141800000E1E6E1CAE06D01B6C1C1ED8B01C2AFB
:10142800010E1E6E1BC013F01CC014F0156A8E0E40
:10143800166E1EC017F043EC08F013C01BF014C062
:101448001CF015C01DF01200949C94908B908B9CFE
:1014580094949492F90ECB6E000EBE6E000EBB6E85
:10146800CF0EBD16CF0EBA16050ECA6EBD80BD8250
:10147800BD84BD86BA80BA82BA84BA861200F2A444
:101488001200A80E4A26020E4B22E80E4A5C030EF2
:101498004B58D8A00AD0E80E4A5E030E4B5A010EEC
:1014A8004626000E472248224922F294120000EEF6
:1014B8008FF0100EEE6AE806FDE100EE3CF0110E2A
:1014C800EE6AE806FDE14D904D92000EF86E0001BF
:1014D80081EF0AF01A501C02F3CF1EF0F4CF1FF070
:1014E8001A501D02F3501F261B501C02F3501F26D2
:1014F8001EC01AF01FC01BF01200C6EC0AF0C1ECA7
:101508000AF0A3EC0AF028EC0AF099EC0AF0E9ECEE
:1015180008F0FDD7166E1650B3EC0AF01450ACEC78
:101528000AF01550BAEC0AF01200928A9286928458
:10153800928292800A0EC16EA50EC06E120093921E
:101548008A9293948A9493968A969380938A1200A7
:10155800136E13B002D08A9401D08A841200136EDD
:1015680013B002D08A9201D08A821200136E13B08F
:1015780002D08A9601D08A861200F294F28AC40EAA
:0C158800D56E1200F28CF28E12001200E0
:020000040020DA
:08000000FFFFFFFFFFFFFFFF00
:020000040030CA
:0E000000240E0100FF0380FF0FC00FE00F4031
:00000001FF
