:0400000007EF00F016
:0A0008003682BCED04F0E3EF05F0D2
:0708000000040302010000E7
:100808001FBE05D01F5006E11E04D8B003D0226ACF
:10081800222A01D0226A223A224622468B502218E6
:10082800BF0B22188B6E21BE05D0215006E1200493
:10083800D8B003D0226A222A01D0226A8B5022180B
:10084800FE0B22188B6E1FAE0ED01EC022F01FC0EA
:1008580023F0221E231E224A232AE80E22241E6E7B
:10086800030E23201F6E21AE0ED020C022F021C01F
:1008780023F0221E231E224A232AE80E2224206E59
:10088800030E2320216E1FBE0AD0E90E1E5C030E44
:100898001F58D8A004D0030E1F6EE80E1E6E21BE8E
:1008A8000AD0E90E205C030E2158D8A004D0030E0C
:1008B800216EE80E206E1EC022F01FC023F00A0E23
:1008C800D89022362336E82EFBD722C016F023C054
:1008D80017F0030E196EE80E186E0BEC05F016C033
:1008E8001EF017C01FF020C022F021C023F00A0E0E
:1008F800D89022362336E82EFBD722C016F023C024
:1009080017F0030E196EE80E186E0BEC05F016C002
:1009180020F017C021F01EC022F0030E2216223A42
:10092800BA502218CF0B2218BA6E20C022F0030E3C
:100938002216223ABD502218CF0B2218BD6E1EC0B7
:1009480022F01FC023F023342332223223342332EF
:1009580022322250BB6E20C022F021C023F0233463
:10096800233222322334233222322250BE6E120026
:100978000600FACF04F0FBCF05F0E9CF06F0EACF86
:1009880007F0E1CF08F0E2CF09F0D9CF0AF0DACFCB
:100998000BF0F3CF0CF0F4CF0DF0F6CF0EF0F7CF4D
:1009A8000FF0F8CF10F0F5CF11F036C012F037C0C5
:1009B80013F038C014F039C015F0CBEC05F04DEC4D
:1009C80005F015C039F014C038F013C037F012C064
:1009D80036F011C0F5FF10C0F8FF0FC0F7FF0EC0CA
:1009E800F6FF0DC0F4FF0CC0F3FF0BC0DAFF0AC01E
:1009F800D9FF09C0E2FF08C0E1FF07C0EAFF06C04F
:100A0800E9FF05C0FBFF04C0FAFF36921100000E93
:100A18001B6E19AE06D0186C191ED8B0192A010E13
:100A28001B6E17AE06D0166C171ED8B0172A010E0B
:100A38001B1A000E1D6E000E1C6E18501910D8B42B
:100A48001CD0010E1A6E04D0D890183619361A2AFE
:100A580019AEFAD7D8901C361D361850165C1950A6
:100A68001758D8A005D01850165E1950175A1C8070
:100A7800D890193218321A2EEDD71B50D8B404D09A
:100A88001C6C1D1ED8B01D2A1CC016F01DC017F006
:100A980012009E9CC3CF01F0080E0126C450026EBE
:100AA800036A012A03D0D89002360336012EFBD7F9
:100AB8003550020D240EF324D96E000EF420DA6EA0
:100AC80002C0DEFF03C0DDFF352A3550010D010EDF
:100AD800F324F66E080EF420F76E0800F5CF01F047
:100AE80001460146C2500118C30B0118C26EC282EA
:100AF8001200949C94908B908B9C94949492F90EF1
:100B0800CB6E000EBE6E000EBB6ECF0EBD16CF0EA6
:100B1800BA16050ECA6EBD80BD82BD84BD86BA8078
:100B2800BA82BA84BA8612000A0EC16EBE0EC06EB0
:100B38009E9C9D8C3550010D010EF324F66E080E17
:100B4800F420F76E0800F5CF16F016461646C25088
:100B58001618C30B1618C26EC280C282120012D0B9
:100B6800000E1F6E000E1E6E000E216E000E206E0F
:100B780004EC04F0000E176E000E186E010EFDEC6A
:100B880005F012003450000AD8A41200E9D7F2A4E4
:100B98001200A80E3226020E3322E80E325C030E33
:100BA8003358D8A00AD0E80E325E030E335A010E2D
:100BB8002E26000E2F2230223122F294120000EE4F
:100BC80024F0120EEE6AE806FDE136903692000E29
:100BD800F86E0001F0EF05F02BEC06F026EC06F0BD
:100BE80008EC06F07DEC05F098EC05F0B3EC05F0A8
:100BF800FDD7196E195018EC06F0175011EC06F0D5
:100C080018501FEC06F0120093928A9293948A94DB
:100C180093968A969380938A1200166E16B002D025
:100C28008A9401D08A841200166E16B002D08A9275
:100C380001D08A821200166E16B002D08A9601D0B0
:100C48008A861200F294F28AC40ED56E1200F28CD3
:040C5800F28E120006
:020000040020DA
:08000000FFFFFFFFFFFFFFFF00
:020000040030CA
:0E000000240E0100FF0380FF0FC00FE00F4031
:00000001FF
