:0400000007EF00F016
:0A0008004D82B4ED09F0CDEF0BF0CE
:1008000000040302010000803F00803F00803FF4AD
:10081000010058D1000E186E000E176E000E1A6EF1
:10082000000E196E03EC0CF0000E4CB0010E146EAD
:10083000000E156E010E10EC0CF049EC0CF0D8A077
:1008400009D049EC0CF0D8B0FCD74C80010E000167
:10085000A96F120043EC0CF0D8A012004CA004D0F9
:10086000020E0001A96F11D0030E186EE80E176E6C
:10087000030E1A6EE80E196E03EC0CF0010E146EE6
:10088000010E156E010E10EC0CF043EC0CF0D8A02C
:100890001200FBD7010E146E000E156E000E10EC48
:1008A0000CF0FF0E186E060E176E000E1A6EFA0E82
:1008B000196E03EC0CF0000E0001946F000E936FA4
:1008C00094BF06D0100E935D270E9459D8B014D063
:1008D00093C013F094C014F0000E166E050E156E42
:1008E000C7EC0AF013C019F014C01AF0F9EC08F0C4
:1008F0000001934B942BE4D7000E186EFA0E176E7E
:10090000FF0E1A6E060E196E03EC0CF0000E0001BD
:10091000966F000E956F96BF06D0200E955D4E0E19
:100920009659D8B014D095C013F096C014F0000EAC
:10093000166E050E156EC7EC0AF013C019F014C040
:100940001AF0F9EC08F00001954B962BE4D7FF0E56
:10095000186E060E176E000E1A6EFA0E196E03EC64
:100960000CF0000E0001986F000E976F98BF06D034
:10097000100E975D270E9859D8B014D097C013F079
:1009800098C014F0000E166E050E156EC7EC0AF036
:1009900013C019F014C01AF0F9EC08F00001974BDD
:1009A000982BE4D7000E186E000E176E000E1A6E0C
:1009B000000E196E03EC0CF0000E0001A96F12007E
:1009C000000E146E010E156E000E10EC0CF00C0EE5
:1009D000F66E080EF76E0900F5CF6FF00900F5CF3F
:1009E00070F00A00F5CF71F0090EF66E080EF76E82
:1009F0000900F5CF72F00900F5CF73F00A00F5CFCA
:100A000074F0060EF66E080EF76E0900F5CF75F05D
:100A10000900F5CF76F00A00F5CF77F06EEC05F01F
:100A20006FC091F070C092F0000192AF25D00F0E10
:100A3000F66E080EF76E0900F5CF8DF00900F5CFC0
:100A40008EF091C08FF092C090F08F1F901F8F4B4F
:100A5000902B8D518F25176E8E519021186E0F0E91
:100A6000F66E080EF76E0900F5CF19F00A00F5CF03
:100A70001AF003EC0CF012000F0EF66E080EF76E73
:100A80000900F5CF17F00A00F5CF18F00F0EF66E3B
:100A9000080EF76E0900F5CF8DF00900F5CF8EF046
:100AA00091C08FF092C090F000018F1F901F8F4B6C
:100AB000902B8D518F25196E8E5190211A6E03EC5B
:100AC0000CF012000001A951000AD8B4A3D6010A03
:100AD000D8B4E0D6030AD8A4120072D7000E0001E1
:100AE000816F000E826F000E836F000E846F000E08
:100AF000856F000E866F000E876F000E886F000EE8
:100B00008C6F000E8B6F8CBF06D08C513DE1050EB3
:100B10008B5DD8B039D08BC020F08CC021F050EC68
:100B200007F020C089F021C08AF0010E00018B255A
:100B30001A6E000E8C211B6E89C01CF08AC01DF03D
:100B4000E1EC0BF01AC07DF01BC07EF07DC01AF006
:100B50007EC01BF0000E1D6E640E1C6EE1EC0BF0EF
:100B60001A50000181271B508223000E8323000EA0
:100B70008423895185278A518623000E8723000EFE
:100B800088238B4B8C2BBFD781C013F082C014F00D
:100B900083C015F084C016F085C017F086C018F029
:100BA00087C019F088C01AF046EC0AF013C07BF039
:100BB00014C07CF0A3C0A7F0A4C0A8F07BC03AF09A
:100BC0007CC03BF03A1E3B1E3A4A3B2A2C0E3A248C
:100BD0000001A36F010E3B20A46FA351A527A451D0
:100BE000A6236FC022F070C023F071C024F0A3C010
:100BF0001BF0A4C01CF07EEC0BF01BC01FF01CC04F
:100C000020F01DC021F07FEC08F01FC02EF020C0A6
:100C10002FF021C030F003EC08F02EC07FF02FC081
:100C200080F072C022F073C023F074C024F0A5C01D
:100C30001BF0A6C01CF07EEC0BF01BC01FF01CC00C
:100C400020F01DC021F07FEC08F01FC069F020C02B
:100C50006AF021C06BF07FC01BF080C01CF07EECFE
:100C60000BF01BC066F01CC067F01DC068F079EC8B
:100C700006F066C078F067C079F068C07AF075C099
:100C800022F076C023F077C024F0A7C03AF0A8C0C5
:100C90003BF03A1E3B1E3A4A3B2A0001A3513A243C
:100CA0001B6EA4513B201C6E7EEC0BF01BC01FF092
:100CB0001CC020F01DC021F07FEC08F01FC069F0BF
:100CC00020C06AF021C06BF078C066F079C067F090
:100CD0007AC068F079EC06F066C02EF067C02FF09D
:100CE00068C030F003EC08F02EC06FF02FC070F039
:100CF000120068C037F0386A396A00016735373644
:100D000001E3388037506E6F6BC037F0386A396A4C
:100D10006A35373601E3388037506D6F6E51D8B47D
:100D20000BD06D516E5DD8B00ED06E5100086D25A0
:100D3000376E180E376407D069C066F06AC067F076
:100D40006BC068F012006D51D8B40BD06E516D5D60
:100D5000D8B00ED06D5100086E25376E180E37646E
:100D600007D066C066F067C067F068C068F0120020
:100D7000060E6C6F68BF6C8F6BBF6C8D678FFF0E3C
:100D80006617FF0E6717000E68176A8FFF0E691748
:100D9000FF0E6A17000E6B176D516E5DD8B01BD039
:100DA000D89069376A376B376D076E516D19D8B4B3
:100DB0000DD06C076CC037F0070E3716D8B406D0CC
:100DC000EFD7D8906833673366336E2B6D516E1949
:100DD000D8B41FD0F6D76E516D5DD8B01AD0D89068
:100DE0006637673768376E076E516D19D8B40DD006
:100DF0006C076CC037F0070E3716D8B406D0EFD7A3
:100E0000D8906B336A3369336D2B6D516E19D8A44A
:100E1000F7D76CAF0CD0FF0E661BFF0E671BFF0EE3
:100E2000681B010E6627000E6723000E68236CAD59
:100E30000CD0FF0E691BFF0E6A1BFF0E6B1B010E11
:100E40006927000E6A23000E6B23000E6C6F66513B
:100E5000692767516A2368516B236BAF0ED0FF0E71
:100E6000691BFF0E6A1BFF0E6B1B010E6927000E2C
:100E70006A23000E6B23010E6C6F69C013F06AC009
:100E800014F06BC015F06EC016F06CC017F05DEC7E
:100E900009F013C066F014C067F015C068F01200C6
:100EA0002050FFEC0AF013C02CF014C02DF0D890A5
:100EB0002034D96E2134DA6E3C0ED926000EDA22A7
:100EC000DE502C5CDE502D58D8A00ED0D8902034A7
:100ED000D96E2134DA6E3C0ED926000EDA22DECF2E
:100EE00028F0DDCF29F004D02CC028F02DC029F047
:100EF000D8902034D96E2134DA6E3C0ED926000EFB
:100F0000DA2228C0DEFF29C0DDFFD8902034D96E58
:100F10002134DA6E990ED926000EDA222C50DE5CCE
:100F20002D50DE58D8A00ED0D8902034D96E213460
:100F3000DA6E990ED926000EDA22DECF2AF0DDCF46
:100F40002BF004D02CC02AF02DC02BF0D8902034E8
:100F5000D96E2134DA6E990ED926000EDA222AC013
:100F6000DEFF2BC0DDFFD8902034D96E2134DA6E3D
:100F70003C0ED926000EDA22DECF22F0DDCF23F0A0
:100F8000221E231E224A232A2C5022241A6E2D5060
:100F900023201B6ED8902034D96E2134DA6E990E3E
:100FA000D926000EDA22DECF24F0DDCF25F0D8904E
:100FB0002034D96E2134DA6E3C0ED926000EDA22A6
:100FC000DECF26F0DDCF27F0261E271E264A272A51
:100FD00024502624156E25502720166E030E146EFD
:100FE000E80E136E55EC0BF013C01CF014C01DF08E
:100FF000E1EC0BF01AC02CF01BC02DF02CC020F03F
:101000002DC021F0120030C032F0336A346A2F3420
:10101000323601E3338032500001656F6551D8A448
:1010200009D0000E2E6E000E2F6E000E306E000ED8
:10103000316E1200170E326E2EC033F02FC034F016
:1010400030C035F03228366E04D0D8903532343284
:101050003332362EFAD733500001606F2F8EFF0ED9
:101060002E16FF0E2F16000E30162E50616F2F50C9
:10107000626F3050636F646B8E0E655F65AF16D024
:101080006551800A8F0FD8B009D0000E2E6E000E69
:101090002F6E000E306E000E316E1200D890643349
:1010A000633362336133653FF9D715D0170E656539
:1010B0000FD0000E2E6E000E2F6E000E306E000E42
:1010C000316E1200D8906137623763376437650735
:1010D0006551D8A4F7D76051D8B408D0641F631FF6
:1010E000621F616D000E62236323642361C02EF0D2
:1010F00062C02FF063C030F064C031F0120021C034
:1011000025F0266A276A2034253601E326802550FB
:10111000286E2850D8A407D0000E1F6E000E206E37
:10112000000E216E120024C025F0266A276A23349F
:10113000253601E3268025502D6E2D50D8A407D0EA
:10114000000E1F6E000E206E000E216E12002D503C
:101150007B0F282621C02DF024502D1A800E2D162D
:10116000208E238EFF0E2216FF0E2316000E24164D
:10117000000E296E000E2A6E000E2B6E070E2C6ECE
:101180001FA006D02250292623502A2224502B2289
:10119000D890213220321F32D8902236233624367E
:1011A0002C2EEED7090E2C6E1FA006D02250292619
:1011B00023502A2224502B22D890213220321F3251
:1011C000D8902B322A3229322C2EEED729C013F098
:1011D0002AC014F02BC015F028C016F02DC017F04F
:1011E0005DEC09F013C01FF014C020F015C021F011
:1011F00012001950FFEC0AF013C021F014C022F0C5
:10120000D8901934D96E1A34DA6E3C0ED926000EF5
:10121000DA22DE50215CDE502258D8A00ED0D890C1
:101220001934D96E1A34DA6E3C0ED926000EDA2241
:10123000DECF1DF0DDCF1EF004D021C01DF022C096
:101240001EF0D8901934D96E1A34DA6E3C0ED926B5
:10125000000EDA221DC0DEFF1EC0DDFFD89019345B
:10126000D96E1A34DA6E990ED926000EDA22215080
:10127000DE5C2250DE58D8A00ED0D8901934D96E3A
:101280001A34DA6E990ED926000EDA22DECF1FF05C
:10129000DDCF20F004D021C01FF022C020F0D89074
:1012A0001934D96E1A34DA6E990ED926000EDA2264
:1012B0001FC0DEFF20C0DDFF12001650D8B405D0DD
:1012C000135014101510D8A40CD0000E136E000E7D
:1012D000146E000E156E1200162AD89015321432B4
:1012E0001332000E1314186E000E1414196EFE0E35
:1012F00015141A6E185019101A10D8B40CD0ECD757
:10130000162A010E1326000E1422000E1522D89064
:10131000153214321332000E1314186E000E14140A
:10132000196EFF0E15141A6E185019101A10D8B431
:1013300006D0E6D71606D89013361436153614BEE6
:1013400003D0020E1660F6D716A0149ED89016325F
:10135000165015121750D8A4158E13C013F014C0D0
:1013600014F015C015F012000600FACF01F0FBCF03
:1013700002F0E9CF03F0EACF04F0E1CF05F0E2CFCD
:1013800006F0D9CF07F0DACF08F0F3CF09F0F4CFA9
:101390000AF0F6CF0BF0F7CF0CF0F8CF0DF0F5CF49
:1013A0000EF04DC00FF04EC010F04FC011F050C005
:1013B00012F0B5EC0BF057EC0CF012C050F011C06D
:1013C0004FF010C04EF00FC04DF00EC0F5FF0DC035
:1013D000F8FF0CC0F7FF0BC0F6FF0AC0F4FF09C00E
:1013E000F3FF08C0DAFF07C0D9FF06C0E2FF05C05F
:1013F000E1FF04C0EAFF03C0E9FF02C0FBFF01C038
:10140000FAFF4D92110014AE03D0156A152A01D0CF
:10141000156A153A154615468B501518BF0B151849
:101420008B6E14AE0AD0180E135CFC0E1458D8B094
:1014300004D0FC0E146E180E136E14BE0AD0E90E02
:10144000135C030E1458D8A004D0030E146EE80EDB
:10145000136E14AE04D0E80E1326030E142213C02C
:1014600015F0030E1516153ABD501518CF0B1518AB
:10147000BD6E13C015F014C016F0163416321532B6
:101480001634163215321550BE6E1200000E1B6E49
:10149000000E1C6E000E1D6E000E1E6E17501810F2
:1014A00019101A10D8B42AD0010E1F6E06D0D89089
:1014B0001736183619361A361F2A1AAEF8D7D890AA
:1014C0001B361C361D361E361750135C1850145828
:1014D000195015581A501658D8A009D01750135E35
:1014E0001850145A1950155A1A50165A1B80D89071
:1014F0001A321932183217321F2EE1D71BC013F0DF
:101500001CC014F01DC015F01EC016F0120014AE61
:1015100003D0156A152A01D0156A8B501518FE0BD9
:1015200015188B6E14AE0AD0180E135CFC0E1458EE
:10153000D8B004D0FC0E146E180E136E14BE0AD070
:10154000E90E135C030E1458D8A004D0030E146ED9
:10155000E80E136E14AE04D0E80E1326030E142208
:1015600013C015F0030E1516153ABA501518CF0B07
:101570001518BA6E13C015F014C016F016341632D2
:1015800015321634163215321550BB6E1200000E8D
:10159000186E14AE06D0136C141ED8B0142A010EA7
:1015A000186E16AE04D0156C161ED8B0162A15503B
:1015B0001610D8B418D0010E176E04D0D890153676
:1015C0001636172A16AEFAD71550135C1650145853
:1015D000D8A004D01550135E1650145AD890163265
:1015E0001532172EF1D71850D8B404D0136C141E2E
:1015F000D8B0142A13C013F014C014F01200176EE0
:10160000040E176405D0000E146E000E136E120047
:101610001750010D010EF324F66E080EF420F76E3C
:101620000800F5CF15F015461546C2501518C30B26
:101630001518C26EC280C282C2B2FED7C290C35019
:10164000C4CF15F0166A15C016F0156A1510136E82
:101650001650146E1200000E146E000E136E14BE9F
:1016600006D0145021E1050E135CD8B01200D890BA
:101670001334D96E1434DA6E3C0ED926000EDA22F9
:10168000FF0EDE6E030EDD6ED8901334D96E143467
:10169000DA6E990ED926000EDA22000EDE6E000EEA
:1016A000DD6E134A142ADBD71200000E186E000EEE
:1016B000176E15501610D8B41CD0010E196E04D038
:1016C000D89015361636192A16AEFAD7D89017368E
:1016D00018361550135C16501458D8A005D0155064
:1016E000135E1650145A1780D89016321532192EE0
:1016F000EDD717C013F018C014F01200000E1E6EC4
:101700001CAE06D01B6C1C1ED8B01C2A010E1E6E0F
:101710001BC013F01CC014F0156A8E0E166E1EC08E
:1017200017F05DEC09F013C01BF014C01CF015C0DD
:101730001DF01200949C94908B908B9C94929494A6
:10174000F90ECB6E000EBE6E000EBB6ECF0EBD1638
:10175000CF0EBA16050ECA6EBD80BD82BD84BD8691
:10176000BA80BA82BA84BA861200F2A41200A80E15
:101770004A26020E4B22E80E4A5C030E4B58D8A0B4
:101780000AD0E80E4A5E030E4B5A010E4626000EA2
:10179000472248224922F294120000EE99F0110EDD
:1017A000EE6AE806FDE14C6A00EE3CF0100EEE6ACF
:1017B000E806FDE14D904D92000EF86E0001F4EF49
:1017C0000BF01A501C02F3CF1EF0F4CF1FF01A508A
:1017D0001D02F3501F261B501C02F3501F261EC073
:1017E0001AF01FC01BF0120054EC0CF04FEC0CF080
:1017F00025EC0CF09AEC0BF01BEC0CF02BEC0BF046
:1018000009EC04F0FDD717C013F018C014F003EC76
:101810000AF019C013F01AC014F087EC0AF0120095
:10182000166E165035EC0CF014502EEC0CF01550D2
:101830003CEC0CF01200928A928692849282928002
:101840000A0EC16EA50EC06E120093928A929394F6
:101850008A9493968A969380938A1200136E13B09B
:1018600002D08A9401D08A841200136E13B002D081
:101870008A9201D08A821200136E13B002D08A9627
:1018800001D08A86120081AA02D0D8901200D88096
:10189000120081A002D0D8901200D8801200F294D9
:1018A000F28AC40ED56E1200F28CF28E1200120073
:020000040020DA
:08000000FFFFFFFFFFFFFFFF00
:020000040030CA
:0E000000240E0100FF0380FF0FC00FE00F4031
:00000001FF
